{
  "contractName": "TheWineGame",
  "abi": [
    {
      "inputs": [],
      "stateMutability": "nonpayable",
      "type": "constructor"
    },
    {
      "anonymous": false,
      "inputs": [
        {
          "indexed": true,
          "internalType": "address",
          "name": "owner",
          "type": "address"
        },
        {
          "indexed": true,
          "internalType": "address",
          "name": "approved",
          "type": "address"
        },
        {
          "indexed": true,
          "internalType": "uint256",
          "name": "tokenId",
          "type": "uint256"
        }
      ],
      "name": "Approval",
      "type": "event"
    },
    {
      "anonymous": false,
      "inputs": [
        {
          "indexed": true,
          "internalType": "address",
          "name": "owner",
          "type": "address"
        },
        {
          "indexed": true,
          "internalType": "address",
          "name": "operator",
          "type": "address"
        },
        {
          "indexed": false,
          "internalType": "bool",
          "name": "approved",
          "type": "bool"
        }
      ],
      "name": "ApprovalForAll",
      "type": "event"
    },
    {
      "anonymous": false,
      "inputs": [
        {
          "indexed": true,
          "internalType": "address",
          "name": "previousOwner",
          "type": "address"
        },
        {
          "indexed": true,
          "internalType": "address",
          "name": "newOwner",
          "type": "address"
        }
      ],
      "name": "OwnershipTransferred",
      "type": "event"
    },
    {
      "anonymous": false,
      "inputs": [
        {
          "indexed": true,
          "internalType": "address",
          "name": "from",
          "type": "address"
        },
        {
          "indexed": true,
          "internalType": "address",
          "name": "to",
          "type": "address"
        },
        {
          "indexed": true,
          "internalType": "uint256",
          "name": "tokenId",
          "type": "uint256"
        }
      ],
      "name": "Transfer",
      "type": "event"
    },
    {
      "inputs": [
        {
          "internalType": "address",
          "name": "to",
          "type": "address"
        },
        {
          "internalType": "uint256",
          "name": "tokenId",
          "type": "uint256"
        }
      ],
      "name": "approve",
      "outputs": [],
      "stateMutability": "nonpayable",
      "type": "function"
    },
    {
      "inputs": [
        {
          "internalType": "address",
          "name": "owner",
          "type": "address"
        }
      ],
      "name": "balanceOf",
      "outputs": [
        {
          "internalType": "uint256",
          "name": "",
          "type": "uint256"
        }
      ],
      "stateMutability": "view",
      "type": "function",
      "constant": true
    },
    {
      "inputs": [
        {
          "internalType": "uint256",
          "name": "tokenId",
          "type": "uint256"
        }
      ],
      "name": "getApproved",
      "outputs": [
        {
          "internalType": "address",
          "name": "",
          "type": "address"
        }
      ],
      "stateMutability": "view",
      "type": "function",
      "constant": true
    },
    {
      "inputs": [
        {
          "internalType": "address",
          "name": "owner",
          "type": "address"
        },
        {
          "internalType": "address",
          "name": "operator",
          "type": "address"
        }
      ],
      "name": "isApprovedForAll",
      "outputs": [
        {
          "internalType": "bool",
          "name": "",
          "type": "bool"
        }
      ],
      "stateMutability": "view",
      "type": "function",
      "constant": true
    },
    {
      "inputs": [],
      "name": "name",
      "outputs": [
        {
          "internalType": "string",
          "name": "",
          "type": "string"
        }
      ],
      "stateMutability": "view",
      "type": "function",
      "constant": true
    },
    {
      "inputs": [],
      "name": "owner",
      "outputs": [
        {
          "internalType": "address",
          "name": "",
          "type": "address"
        }
      ],
      "stateMutability": "view",
      "type": "function",
      "constant": true
    },
    {
      "inputs": [
        {
          "internalType": "uint256",
          "name": "tokenId",
          "type": "uint256"
        }
      ],
      "name": "ownerOf",
      "outputs": [
        {
          "internalType": "address",
          "name": "",
          "type": "address"
        }
      ],
      "stateMutability": "view",
      "type": "function",
      "constant": true
    },
    {
      "inputs": [],
      "name": "renounceOwnership",
      "outputs": [],
      "stateMutability": "nonpayable",
      "type": "function"
    },
    {
      "inputs": [
        {
          "internalType": "address",
          "name": "from",
          "type": "address"
        },
        {
          "internalType": "address",
          "name": "to",
          "type": "address"
        },
        {
          "internalType": "uint256",
          "name": "tokenId",
          "type": "uint256"
        }
      ],
      "name": "safeTransferFrom",
      "outputs": [],
      "stateMutability": "nonpayable",
      "type": "function"
    },
    {
      "inputs": [
        {
          "internalType": "address",
          "name": "from",
          "type": "address"
        },
        {
          "internalType": "address",
          "name": "to",
          "type": "address"
        },
        {
          "internalType": "uint256",
          "name": "tokenId",
          "type": "uint256"
        },
        {
          "internalType": "bytes",
          "name": "data",
          "type": "bytes"
        }
      ],
      "name": "safeTransferFrom",
      "outputs": [],
      "stateMutability": "nonpayable",
      "type": "function"
    },
    {
      "inputs": [
        {
          "internalType": "address",
          "name": "operator",
          "type": "address"
        },
        {
          "internalType": "bool",
          "name": "approved",
          "type": "bool"
        }
      ],
      "name": "setApprovalForAll",
      "outputs": [],
      "stateMutability": "nonpayable",
      "type": "function"
    },
    {
      "inputs": [],
      "name": "symbol",
      "outputs": [
        {
          "internalType": "string",
          "name": "",
          "type": "string"
        }
      ],
      "stateMutability": "view",
      "type": "function",
      "constant": true
    },
    {
      "inputs": [
        {
          "internalType": "uint256",
          "name": "index",
          "type": "uint256"
        }
      ],
      "name": "tokenByIndex",
      "outputs": [
        {
          "internalType": "uint256",
          "name": "",
          "type": "uint256"
        }
      ],
      "stateMutability": "view",
      "type": "function",
      "constant": true
    },
    {
      "inputs": [
        {
          "internalType": "address",
          "name": "owner",
          "type": "address"
        },
        {
          "internalType": "uint256",
          "name": "index",
          "type": "uint256"
        }
      ],
      "name": "tokenOfOwnerByIndex",
      "outputs": [
        {
          "internalType": "uint256",
          "name": "",
          "type": "uint256"
        }
      ],
      "stateMutability": "view",
      "type": "function",
      "constant": true
    },
    {
      "inputs": [
        {
          "internalType": "uint256",
          "name": "tokenId",
          "type": "uint256"
        }
      ],
      "name": "tokenURI",
      "outputs": [
        {
          "internalType": "string",
          "name": "",
          "type": "string"
        }
      ],
      "stateMutability": "view",
      "type": "function",
      "constant": true
    },
    {
      "inputs": [],
      "name": "totalSupply",
      "outputs": [
        {
          "internalType": "uint256",
          "name": "",
          "type": "uint256"
        }
      ],
      "stateMutability": "view",
      "type": "function",
      "constant": true
    },
    {
      "inputs": [
        {
          "internalType": "address",
          "name": "from",
          "type": "address"
        },
        {
          "internalType": "address",
          "name": "to",
          "type": "address"
        },
        {
          "internalType": "uint256",
          "name": "tokenId",
          "type": "uint256"
        }
      ],
      "name": "transferFrom",
      "outputs": [],
      "stateMutability": "nonpayable",
      "type": "function"
    },
    {
      "inputs": [
        {
          "internalType": "address",
          "name": "newOwner",
          "type": "address"
        }
      ],
      "name": "transferOwnership",
      "outputs": [],
      "stateMutability": "nonpayable",
      "type": "function"
    },
    {
      "inputs": [
        {
          "internalType": "bytes4",
          "name": "interfaceId",
          "type": "bytes4"
        }
      ],
      "name": "supportsInterface",
      "outputs": [
        {
          "internalType": "bool",
          "name": "",
          "type": "bool"
        }
      ],
      "stateMutability": "view",
      "type": "function",
      "constant": true
    },
    {
      "inputs": [
        {
          "internalType": "address",
          "name": "to",
          "type": "address"
        }
      ],
      "name": "safeMint",
      "outputs": [],
      "stateMutability": "nonpayable",
      "type": "function"
    },
    {
      "inputs": [
        {
          "internalType": "string",
          "name": "baseURI",
          "type": "string"
        }
      ],
      "name": "setBaseURI",
      "outputs": [],
      "stateMutability": "nonpayable",
      "type": "function"
    }
  ],
  "bytecode": "0x60806040526000600c553480156200001657600080fd5b506040518060400160405280600d81526020017f5468652057696e652047616d65000000000000000000000000000000000000008152506040518060400160405280600381526020017f5457470000000000000000000000000000000000000000000000000000000000815250620000a362000097620000f960201b60201c565b6200010160201b60201c565b8160019081620000b491906200051e565b508060029081620000c691906200051e565b505050620000f360405180606001604052806022815260200162003c8d60229139620001c560201b60201c565b62000688565b600033905090565b60008060009054906101000a900473ffffffffffffffffffffffffffffffffffffffff169050816000806101000a81548173ffffffffffffffffffffffffffffffffffffffff021916908373ffffffffffffffffffffffffffffffffffffffff1602179055508173ffffffffffffffffffffffffffffffffffffffff168173ffffffffffffffffffffffffffffffffffffffff167f8be0079c531659141344cd1fd0a4f28419497f9722a3daafe3b4186f6b6457e060405160405180910390a35050565b620001d5620001ea60201b60201c565b80600b9081620001e691906200051e565b5050565b620001fa620000f960201b60201c565b73ffffffffffffffffffffffffffffffffffffffff16620002206200027b60201b60201c565b73ffffffffffffffffffffffffffffffffffffffff161462000279576040517f08c379a0000000000000000000000000000000000000000000000000000000008152600401620002709062000666565b60405180910390fd5b565b60008060009054906101000a900473ffffffffffffffffffffffffffffffffffffffff16905090565b600081519050919050565b7f4e487b7100000000000000000000000000000000000000000000000000000000600052604160045260246000fd5b7f4e487b7100000000000000000000000000000000000000000000000000000000600052602260045260246000fd5b600060028204905060018216806200032657607f821691505b6020821081036200033c576200033b620002de565b5b50919050565b60008190508160005260206000209050919050565b60006020601f8301049050919050565b600082821b905092915050565b600060088302620003a67fffffffffffffffffffffffffffffffffffffffffffffffffffffffffffffffff8262000367565b620003b2868362000367565b95508019841693508086168417925050509392505050565b6000819050919050565b6000819050919050565b6000620003ff620003f9620003f384620003ca565b620003d4565b620003ca565b9050919050565b6000819050919050565b6200041b83620003de565b620004336200042a8262000406565b84845462000374565b825550505050565b600090565b6200044a6200043b565b6200045781848462000410565b505050565b5b818110156200047f576200047360008262000440565b6001810190506200045d565b5050565b601f821115620004ce57620004988162000342565b620004a38462000357565b81016020851015620004b3578190505b620004cb620004c28562000357565b8301826200045c565b50505b505050565b600082821c905092915050565b6000620004f360001984600802620004d3565b1980831691505092915050565b60006200050e8383620004e0565b9150826002028217905092915050565b6200052982620002a4565b67ffffffffffffffff811115620005455762000544620002af565b5b6200055182546200030d565b6200055e82828562000483565b600060209050601f83116001811462000596576000841562000581578287015190505b6200058d858262000500565b865550620005fd565b601f198416620005a68662000342565b60005b82811015620005d057848901518255600182019150602085019450602081019050620005a9565b86831015620005f05784890151620005ec601f891682620004e0565b8355505b6001600288020188555050505b505050505050565b600082825260208201905092915050565b7f4f776e61626c653a2063616c6c6572206973206e6f7420746865206f776e6572600082015250565b60006200064e60208362000605565b91506200065b8262000616565b602082019050919050565b6000602082019050818103600083015262000681816200063f565b9050919050565b6135f580620006986000396000f3fe608060405234801561001057600080fd5b50600436106101375760003560e01c806355f804b3116100b857806395d89b411161007c57806395d89b411461034c578063a22cb4651461036a578063b88d4fde14610386578063c87b56dd146103a2578063e985e9c5146103d2578063f2fde38b1461040257610137565b806355f804b3146102a85780636352211e146102c457806370a08231146102f4578063715018a6146103245780638da5cb5b1461032e57610137565b806323b872dd116100ff57806323b872dd146101f45780632f745c591461021057806340d097c31461024057806342842e0e1461025c5780634f6ccce71461027857610137565b806301ffc9a71461013c57806306fdde031461016c578063081812fc1461018a578063095ea7b3146101ba57806318160ddd146101d6575b600080fd5b610156600480360381019061015191906121e0565b61041e565b6040516101639190612228565b60405180910390f35b610174610430565b60405161018191906122d3565b60405180910390f35b6101a4600480360381019061019f919061232b565b6104c2565b6040516101b19190612399565b60405180910390f35b6101d460048036038101906101cf91906123e0565b610508565b005b6101de61061f565b6040516101eb919061242f565b60405180910390f35b61020e6004803603810190610209919061244a565b61062c565b005b61022a600480360381019061022591906123e0565b61068c565b604051610237919061242f565b60405180910390f35b61025a6004803603810190610255919061249d565b610731565b005b6102766004803603810190610271919061244a565b610768565b005b610292600480360381019061028d919061232b565b610788565b60405161029f919061242f565b60405180910390f35b6102c260048036038101906102bd91906125ff565b6107f9565b005b6102de60048036038101906102d9919061232b565b610814565b6040516102eb9190612399565b60405180910390f35b61030e6004803603810190610309919061249d565b61089a565b60405161031b919061242f565b60405180910390f35b61032c610951565b005b610336610965565b6040516103439190612399565b60405180910390f35b61035461098e565b60405161036191906122d3565b60405180910390f35b610384600480360381019061037f9190612674565b610a20565b005b6103a0600480360381019061039b9190612755565b610a36565b005b6103bc60048036038101906103b7919061232b565b610a98565b6040516103c991906122d3565b60405180910390f35b6103ec60048036038101906103e791906127d8565b610b00565b6040516103f99190612228565b60405180910390f35b61041c6004803603810190610417919061249d565b610b94565b005b600061042982610c17565b9050919050565b60606001805461043f90612847565b80601f016020809104026020016040519081016040528092919081815260200182805461046b90612847565b80156104b85780601f1061048d576101008083540402835291602001916104b8565b820191906000526020600020905b81548152906001019060200180831161049b57829003601f168201915b5050505050905090565b60006104cd82610c91565b6005600083815260200190815260200160002060009054906101000a900473ffffffffffffffffffffffffffffffffffffffff169050919050565b600061051382610814565b90508073ffffffffffffffffffffffffffffffffffffffff168373ffffffffffffffffffffffffffffffffffffffff1603610583576040517f08c379a000000000000000000000000000000000000000000000000000000000815260040161057a906128ea565b60405180910390fd5b8073ffffffffffffffffffffffffffffffffffffffff166105a2610cdc565b73ffffffffffffffffffffffffffffffffffffffff1614806105d157506105d0816105cb610cdc565b610b00565b5b610610576040517f08c379a00000000000000000000000000000000000000000000000000000000081526004016106079061297c565b60405180910390fd5b61061a8383610ce4565b505050565b6000600980549050905090565b61063d610637610cdc565b82610d9d565b61067c576040517f08c379a000000000000000000000000000000000000000000000000000000000815260040161067390612a0e565b60405180910390fd5b610687838383610e32565b505050565b60006106978361089a565b82106106d8576040517f08c379a00000000000000000000000000000000000000000000000000000000081526004016106cf90612aa0565b60405180910390fd5b600760008473ffffffffffffffffffffffffffffffffffffffff1673ffffffffffffffffffffffffffffffffffffffff168152602001908152602001600020600083815260200190815260200160002054905092915050565b61073961112b565b6000600c5490506001600c60008282546107539190612aef565b9250508190555061076482826111a9565b5050565b61078383838360405180602001604052806000815250610a36565b505050565b600061079261061f565b82106107d3576040517f08c379a00000000000000000000000000000000000000000000000000000000081526004016107ca90612b95565b60405180910390fd5b600982815481106107e7576107e6612bb5565b5b90600052602060002001549050919050565b61080161112b565b80600b90816108109190612d90565b5050565b600080610820836111c7565b9050600073ffffffffffffffffffffffffffffffffffffffff168173ffffffffffffffffffffffffffffffffffffffff1603610891576040517f08c379a000000000000000000000000000000000000000000000000000000000815260040161088890612eae565b60405180910390fd5b80915050919050565b60008073ffffffffffffffffffffffffffffffffffffffff168273ffffffffffffffffffffffffffffffffffffffff160361090a576040517f08c379a000000000000000000000000000000000000000000000000000000000815260040161090190612f40565b60405180910390fd5b600460008373ffffffffffffffffffffffffffffffffffffffff1673ffffffffffffffffffffffffffffffffffffffff168152602001908152602001600020549050919050565b61095961112b565b6109636000611204565b565b60008060009054906101000a900473ffffffffffffffffffffffffffffffffffffffff16905090565b60606002805461099d90612847565b80601f01602080910402602001604051908101604052809291908181526020018280546109c990612847565b8015610a165780601f106109eb57610100808354040283529160200191610a16565b820191906000526020600020905b8154815290600101906020018083116109f957829003601f168201915b5050505050905090565b610a32610a2b610cdc565b83836112c8565b5050565b610a47610a41610cdc565b83610d9d565b610a86576040517f08c379a0000000000000000000000000000000000000000000000000000000008152600401610a7d90612a0e565b60405180910390fd5b610a9284848484611434565b50505050565b6060610aa382610c91565b6000610aad611490565b90506000815111610acd5760405180602001604052806000815250610af8565b80610ad784611522565b604051602001610ae8929190612f9c565b6040516020818303038152906040525b915050919050565b6000600660008473ffffffffffffffffffffffffffffffffffffffff1673ffffffffffffffffffffffffffffffffffffffff16815260200190815260200160002060008373ffffffffffffffffffffffffffffffffffffffff1673ffffffffffffffffffffffffffffffffffffffff16815260200190815260200160002060009054906101000a900460ff16905092915050565b610b9c61112b565b600073ffffffffffffffffffffffffffffffffffffffff168173ffffffffffffffffffffffffffffffffffffffff1603610c0b576040517f08c379a0000000000000000000000000000000000000000000000000000000008152600401610c0290613032565b60405180910390fd5b610c1481611204565b50565b60007f780e9d63000000000000000000000000000000000000000000000000000000007bffffffffffffffffffffffffffffffffffffffffffffffffffffffff1916827bffffffffffffffffffffffffffffffffffffffffffffffffffffffff19161480610c8a5750610c89826115f0565b5b9050919050565b610c9a816116d2565b610cd9576040517f08c379a0000000000000000000000000000000000000000000000000000000008152600401610cd090612eae565b60405180910390fd5b50565b600033905090565b816005600083815260200190815260200160002060006101000a81548173ffffffffffffffffffffffffffffffffffffffff021916908373ffffffffffffffffffffffffffffffffffffffff160217905550808273ffffffffffffffffffffffffffffffffffffffff16610d5783610814565b73ffffffffffffffffffffffffffffffffffffffff167f8c5be1e5ebec7d5bd14f71427d1e84f3dd0314c0f7b2291e5b200ac8c7c3b92560405160405180910390a45050565b600080610da983610814565b90508073ffffffffffffffffffffffffffffffffffffffff168473ffffffffffffffffffffffffffffffffffffffff161480610deb5750610dea8185610b00565b5b80610e2957508373ffffffffffffffffffffffffffffffffffffffff16610e11846104c2565b73ffffffffffffffffffffffffffffffffffffffff16145b91505092915050565b8273ffffffffffffffffffffffffffffffffffffffff16610e5282610814565b73ffffffffffffffffffffffffffffffffffffffff1614610ea8576040517f08c379a0000000000000000000000000000000000000000000000000000000008152600401610e9f906130c4565b60405180910390fd5b600073ffffffffffffffffffffffffffffffffffffffff168273ffffffffffffffffffffffffffffffffffffffff1603610f17576040517f08c379a0000000000000000000000000000000000000000000000000000000008152600401610f0e90613156565b60405180910390fd5b610f248383836001611713565b8273ffffffffffffffffffffffffffffffffffffffff16610f4482610814565b73ffffffffffffffffffffffffffffffffffffffff1614610f9a576040517f08c379a0000000000000000000000000000000000000000000000000000000008152600401610f91906130c4565b60405180910390fd5b6005600082815260200190815260200160002060006101000a81549073ffffffffffffffffffffffffffffffffffffffff02191690556001600460008573ffffffffffffffffffffffffffffffffffffffff1673ffffffffffffffffffffffffffffffffffffffff168152602001908152602001600020600082825403925050819055506001600460008473ffffffffffffffffffffffffffffffffffffffff1673ffffffffffffffffffffffffffffffffffffffff16815260200190815260200160002060008282540192505081905550816003600083815260200190815260200160002060006101000a81548173ffffffffffffffffffffffffffffffffffffffff021916908373ffffffffffffffffffffffffffffffffffffffff160217905550808273ffffffffffffffffffffffffffffffffffffffff168473ffffffffffffffffffffffffffffffffffffffff167fddf252ad1be2c89b69c2b068fc378daa952ba7f163c4a11628f55a4df523b3ef60405160405180910390a46111268383836001611725565b505050565b611133610cdc565b73ffffffffffffffffffffffffffffffffffffffff16611151610965565b73ffffffffffffffffffffffffffffffffffffffff16146111a7576040517f08c379a000000000000000000000000000000000000000000000000000000000815260040161119e906131c2565b60405180910390fd5b565b6111c382826040518060200160405280600081525061172b565b5050565b60006003600083815260200190815260200160002060009054906101000a900473ffffffffffffffffffffffffffffffffffffffff169050919050565b60008060009054906101000a900473ffffffffffffffffffffffffffffffffffffffff169050816000806101000a81548173ffffffffffffffffffffffffffffffffffffffff021916908373ffffffffffffffffffffffffffffffffffffffff1602179055508173ffffffffffffffffffffffffffffffffffffffff168173ffffffffffffffffffffffffffffffffffffffff167f8be0079c531659141344cd1fd0a4f28419497f9722a3daafe3b4186f6b6457e060405160405180910390a35050565b8173ffffffffffffffffffffffffffffffffffffffff168373ffffffffffffffffffffffffffffffffffffffff1603611336576040517f08c379a000000000000000000000000000000000000000000000000000000000815260040161132d9061322e565b60405180910390fd5b80600660008573ffffffffffffffffffffffffffffffffffffffff1673ffffffffffffffffffffffffffffffffffffffff16815260200190815260200160002060008473ffffffffffffffffffffffffffffffffffffffff1673ffffffffffffffffffffffffffffffffffffffff16815260200190815260200160002060006101000a81548160ff0219169083151502179055508173ffffffffffffffffffffffffffffffffffffffff168373ffffffffffffffffffffffffffffffffffffffff167f17307eab39ab6107e8899845ad3d59bd9653f200f220920489ca2b5937696c31836040516114279190612228565b60405180910390a3505050565b61143f848484610e32565b61144b84848484611786565b61148a576040517f08c379a0000000000000000000000000000000000000000000000000000000008152600401611481906132c0565b60405180910390fd5b50505050565b6060600b805461149f90612847565b80601f01602080910402602001604051908101604052809291908181526020018280546114cb90612847565b80156115185780601f106114ed57610100808354040283529160200191611518565b820191906000526020600020905b8154815290600101906020018083116114fb57829003601f168201915b5050505050905090565b6060600060016115318461190d565b01905060008167ffffffffffffffff8111156115505761154f6124d4565b5b6040519080825280601f01601f1916602001820160405280156115825781602001600182028036833780820191505090505b509050600082602001820190505b6001156115e5578080600190039150507f3031323334353637383961626364656600000000000000000000000000000000600a86061a8153600a85816115d9576115d86132e0565b5b04945060008503611590575b819350505050919050565b60007f80ac58cd000000000000000000000000000000000000000000000000000000007bffffffffffffffffffffffffffffffffffffffffffffffffffffffff1916827bffffffffffffffffffffffffffffffffffffffffffffffffffffffff191614806116bb57507f5b5e139f000000000000000000000000000000000000000000000000000000007bffffffffffffffffffffffffffffffffffffffffffffffffffffffff1916827bffffffffffffffffffffffffffffffffffffffffffffffffffffffff1916145b806116cb57506116ca82611a60565b5b9050919050565b60008073ffffffffffffffffffffffffffffffffffffffff166116f4836111c7565b73ffffffffffffffffffffffffffffffffffffffff1614159050919050565b61171f84848484611aca565b50505050565b50505050565b6117358383611c28565b6117426000848484611786565b611781576040517f08c379a0000000000000000000000000000000000000000000000000000000008152600401611778906132c0565b60405180910390fd5b505050565b60006117a78473ffffffffffffffffffffffffffffffffffffffff16611e45565b15611900578373ffffffffffffffffffffffffffffffffffffffff1663150b7a026117d0610cdc565b8786866040518563ffffffff1660e01b81526004016117f29493929190613364565b6020604051808303816000875af192505050801561182e57506040513d601f19601f8201168201806040525081019061182b91906133c5565b60015b6118b0573d806000811461185e576040519150601f19603f3d011682016040523d82523d6000602084013e611863565b606091505b5060008151036118a8576040517f08c379a000000000000000000000000000000000000000000000000000000000815260040161189f906132c0565b60405180910390fd5b805181602001fd5b63150b7a0260e01b7bffffffffffffffffffffffffffffffffffffffffffffffffffffffff1916817bffffffffffffffffffffffffffffffffffffffffffffffffffffffff191614915050611905565b600190505b949350505050565b600080600090507a184f03e93ff9f4daa797ed6e38ed64bf6a1f010000000000000000831061196b577a184f03e93ff9f4daa797ed6e38ed64bf6a1f0100000000000000008381611961576119606132e0565b5b0492506040810190505b6d04ee2d6d415b85acef810000000083106119a8576d04ee2d6d415b85acef8100000000838161199e5761199d6132e0565b5b0492506020810190505b662386f26fc1000083106119d757662386f26fc1000083816119cd576119cc6132e0565b5b0492506010810190505b6305f5e1008310611a00576305f5e10083816119f6576119f56132e0565b5b0492506008810190505b6127108310611a25576127108381611a1b57611a1a6132e0565b5b0492506004810190505b60648310611a485760648381611a3e57611a3d6132e0565b5b0492506002810190505b600a8310611a57576001810190505b80915050919050565b60007f01ffc9a7000000000000000000000000000000000000000000000000000000007bffffffffffffffffffffffffffffffffffffffffffffffffffffffff1916827bffffffffffffffffffffffffffffffffffffffffffffffffffffffff1916149050919050565b611ad684848484611e68565b6001811115611b1a576040517f08c379a0000000000000000000000000000000000000000000000000000000008152600401611b1190613464565b60405180910390fd5b6000829050600073ffffffffffffffffffffffffffffffffffffffff168573ffffffffffffffffffffffffffffffffffffffff1603611b6157611b5c81611e6e565b611ba0565b8373ffffffffffffffffffffffffffffffffffffffff168573ffffffffffffffffffffffffffffffffffffffff1614611b9f57611b9e8582611eb7565b5b5b600073ffffffffffffffffffffffffffffffffffffffff168473ffffffffffffffffffffffffffffffffffffffff1603611be257611bdd81612024565b611c21565b8473ffffffffffffffffffffffffffffffffffffffff168473ffffffffffffffffffffffffffffffffffffffff1614611c2057611c1f84826120f5565b5b5b5050505050565b600073ffffffffffffffffffffffffffffffffffffffff168273ffffffffffffffffffffffffffffffffffffffff1603611c97576040517f08c379a0000000000000000000000000000000000000000000000000000000008152600401611c8e906134d0565b60405180910390fd5b611ca0816116d2565b15611ce0576040517f08c379a0000000000000000000000000000000000000000000000000000000008152600401611cd79061353c565b60405180910390fd5b611cee600083836001611713565b611cf7816116d2565b15611d37576040517f08c379a0000000000000000000000000000000000000000000000000000000008152600401611d2e9061353c565b60405180910390fd5b6001600460008473ffffffffffffffffffffffffffffffffffffffff1673ffffffffffffffffffffffffffffffffffffffff16815260200190815260200160002060008282540192505081905550816003600083815260200190815260200160002060006101000a81548173ffffffffffffffffffffffffffffffffffffffff021916908373ffffffffffffffffffffffffffffffffffffffff160217905550808273ffffffffffffffffffffffffffffffffffffffff16600073ffffffffffffffffffffffffffffffffffffffff167fddf252ad1be2c89b69c2b068fc378daa952ba7f163c4a11628f55a4df523b3ef60405160405180910390a4611e41600083836001611725565b5050565b6000808273ffffffffffffffffffffffffffffffffffffffff163b119050919050565b50505050565b600980549050600a600083815260200190815260200160002081905550600981908060018154018082558091505060019003906000526020600020016000909190919091505550565b60006001611ec48461089a565b611ece919061355c565b9050600060086000848152602001908152602001600020549050818114611fb3576000600760008673ffffffffffffffffffffffffffffffffffffffff1673ffffffffffffffffffffffffffffffffffffffff168152602001908152602001600020600084815260200190815260200160002054905080600760008773ffffffffffffffffffffffffffffffffffffffff1673ffffffffffffffffffffffffffffffffffffffff168152602001908152602001600020600084815260200190815260200160002081905550816008600083815260200190815260200160002081905550505b6008600084815260200190815260200160002060009055600760008573ffffffffffffffffffffffffffffffffffffffff1673ffffffffffffffffffffffffffffffffffffffff16815260200190815260200160002060008381526020019081526020016000206000905550505050565b60006001600980549050612038919061355c565b90506000600a600084815260200190815260200160002054905060006009838154811061206857612067612bb5565b5b90600052602060002001549050806009838154811061208a57612089612bb5565b5b906000526020600020018190555081600a600083815260200190815260200160002081905550600a60008581526020019081526020016000206000905560098054806120d9576120d8613590565b5b6001900381819060005260206000200160009055905550505050565b60006121008361089a565b905081600760008573ffffffffffffffffffffffffffffffffffffffff1673ffffffffffffffffffffffffffffffffffffffff168152602001908152602001600020600083815260200190815260200160002081905550806008600084815260200190815260200160002081905550505050565b6000604051905090565b600080fd5b600080fd5b60007fffffffff0000000000000000000000000000000000000000000000000000000082169050919050565b6121bd81612188565b81146121c857600080fd5b50565b6000813590506121da816121b4565b92915050565b6000602082840312156121f6576121f561217e565b5b6000612204848285016121cb565b91505092915050565b60008115159050919050565b6122228161220d565b82525050565b600060208201905061223d6000830184612219565b92915050565b600081519050919050565b600082825260208201905092915050565b60005b8381101561227d578082015181840152602081019050612262565b60008484015250505050565b6000601f19601f8301169050919050565b60006122a582612243565b6122af818561224e565b93506122bf81856020860161225f565b6122c881612289565b840191505092915050565b600060208201905081810360008301526122ed818461229a565b905092915050565b6000819050919050565b612308816122f5565b811461231357600080fd5b50565b600081359050612325816122ff565b92915050565b6000602082840312156123415761234061217e565b5b600061234f84828501612316565b91505092915050565b600073ffffffffffffffffffffffffffffffffffffffff82169050919050565b600061238382612358565b9050919050565b61239381612378565b82525050565b60006020820190506123ae600083018461238a565b92915050565b6123bd81612378565b81146123c857600080fd5b50565b6000813590506123da816123b4565b92915050565b600080604083850312156123f7576123f661217e565b5b6000612405858286016123cb565b925050602061241685828601612316565b9150509250929050565b612429816122f5565b82525050565b60006020820190506124446000830184612420565b92915050565b6000806000606084860312156124635761246261217e565b5b6000612471868287016123cb565b9350506020612482868287016123cb565b925050604061249386828701612316565b9150509250925092565b6000602082840312156124b3576124b261217e565b5b60006124c1848285016123cb565b91505092915050565b600080fd5b600080fd5b7f4e487b7100000000000000000000000000000000000000000000000000000000600052604160045260246000fd5b61250c82612289565b810181811067ffffffffffffffff8211171561252b5761252a6124d4565b5b80604052505050565b600061253e612174565b905061254a8282612503565b919050565b600067ffffffffffffffff82111561256a576125696124d4565b5b61257382612289565b9050602081019050919050565b82818337600083830152505050565b60006125a261259d8461254f565b612534565b9050828152602081018484840111156125be576125bd6124cf565b5b6125c9848285612580565b509392505050565b600082601f8301126125e6576125e56124ca565b5b81356125f684826020860161258f565b91505092915050565b6000602082840312156126155761261461217e565b5b600082013567ffffffffffffffff81111561263357612632612183565b5b61263f848285016125d1565b91505092915050565b6126518161220d565b811461265c57600080fd5b50565b60008135905061266e81612648565b92915050565b6000806040838503121561268b5761268a61217e565b5b6000612699858286016123cb565b92505060206126aa8582860161265f565b9150509250929050565b600067ffffffffffffffff8211156126cf576126ce6124d4565b5b6126d882612289565b9050602081019050919050565b60006126f86126f3846126b4565b612534565b905082815260208101848484011115612714576127136124cf565b5b61271f848285612580565b509392505050565b600082601f83011261273c5761273b6124ca565b5b813561274c8482602086016126e5565b91505092915050565b6000806000806080858703121561276f5761276e61217e565b5b600061277d878288016123cb565b945050602061278e878288016123cb565b935050604061279f87828801612316565b925050606085013567ffffffffffffffff8111156127c0576127bf612183565b5b6127cc87828801612727565b91505092959194509250565b600080604083850312156127ef576127ee61217e565b5b60006127fd858286016123cb565b925050602061280e858286016123cb565b9150509250929050565b7f4e487b7100000000000000000000000000000000000000000000000000000000600052602260045260246000fd5b6000600282049050600182168061285f57607f821691505b60208210810361287257612871612818565b5b50919050565b7f4552433732313a20617070726f76616c20746f2063757272656e74206f776e6560008201527f7200000000000000000000000000000000000000000000000000000000000000602082015250565b60006128d460218361224e565b91506128df82612878565b604082019050919050565b60006020820190508181036000830152612903816128c7565b9050919050565b7f4552433732313a20617070726f76652063616c6c6572206973206e6f7420746f60008201527f6b656e206f776e6572206f7220617070726f76656420666f7220616c6c000000602082015250565b6000612966603d8361224e565b91506129718261290a565b604082019050919050565b6000602082019050818103600083015261299581612959565b9050919050565b7f4552433732313a2063616c6c6572206973206e6f7420746f6b656e206f776e6560008201527f72206f7220617070726f76656400000000000000000000000000000000000000602082015250565b60006129f8602d8361224e565b9150612a038261299c565b604082019050919050565b60006020820190508181036000830152612a27816129eb565b9050919050565b7f455243373231456e756d657261626c653a206f776e657220696e646578206f7560008201527f74206f6620626f756e6473000000000000000000000000000000000000000000602082015250565b6000612a8a602b8361224e565b9150612a9582612a2e565b604082019050919050565b60006020820190508181036000830152612ab981612a7d565b9050919050565b7f4e487b7100000000000000000000000000000000000000000000000000000000600052601160045260246000fd5b6000612afa826122f5565b9150612b05836122f5565b9250828201905080821115612b1d57612b1c612ac0565b5b92915050565b7f455243373231456e756d657261626c653a20676c6f62616c20696e646578206f60008201527f7574206f6620626f756e64730000000000000000000000000000000000000000602082015250565b6000612b7f602c8361224e565b9150612b8a82612b23565b604082019050919050565b60006020820190508181036000830152612bae81612b72565b9050919050565b7f4e487b7100000000000000000000000000000000000000000000000000000000600052603260045260246000fd5b60008190508160005260206000209050919050565b60006020601f8301049050919050565b600082821b905092915050565b600060088302612c467fffffffffffffffffffffffffffffffffffffffffffffffffffffffffffffffff82612c09565b612c508683612c09565b95508019841693508086168417925050509392505050565b6000819050919050565b6000612c8d612c88612c83846122f5565b612c68565b6122f5565b9050919050565b6000819050919050565b612ca783612c72565b612cbb612cb382612c94565b848454612c16565b825550505050565b600090565b612cd0612cc3565b612cdb818484612c9e565b505050565b5b81811015612cff57612cf4600082612cc8565b600181019050612ce1565b5050565b601f821115612d4457612d1581612be4565b612d1e84612bf9565b81016020851015612d2d578190505b612d41612d3985612bf9565b830182612ce0565b50505b505050565b600082821c905092915050565b6000612d6760001984600802612d49565b1980831691505092915050565b6000612d808383612d56565b9150826002028217905092915050565b612d9982612243565b67ffffffffffffffff811115612db257612db16124d4565b5b612dbc8254612847565b612dc7828285612d03565b600060209050601f831160018114612dfa5760008415612de8578287015190505b612df28582612d74565b865550612e5a565b601f198416612e0886612be4565b60005b82811015612e3057848901518255600182019150602085019450602081019050612e0b565b86831015612e4d5784890151612e49601f891682612d56565b8355505b6001600288020188555050505b505050505050565b7f4552433732313a20696e76616c696420746f6b656e2049440000000000000000600082015250565b6000612e9860188361224e565b9150612ea382612e62565b602082019050919050565b60006020820190508181036000830152612ec781612e8b565b9050919050565b7f4552433732313a2061646472657373207a65726f206973206e6f74206120766160008201527f6c6964206f776e65720000000000000000000000000000000000000000000000602082015250565b6000612f2a60298361224e565b9150612f3582612ece565b604082019050919050565b60006020820190508181036000830152612f5981612f1d565b9050919050565b600081905092915050565b6000612f7682612243565b612f808185612f60565b9350612f9081856020860161225f565b80840191505092915050565b6000612fa88285612f6b565b9150612fb48284612f6b565b91508190509392505050565b7f4f776e61626c653a206e6577206f776e657220697320746865207a65726f206160008201527f6464726573730000000000000000000000000000000000000000000000000000602082015250565b600061301c60268361224e565b915061302782612fc0565b604082019050919050565b6000602082019050818103600083015261304b8161300f565b9050919050565b7f4552433732313a207472616e736665722066726f6d20696e636f72726563742060008201527f6f776e6572000000000000000000000000000000000000000000000000000000602082015250565b60006130ae60258361224e565b91506130b982613052565b604082019050919050565b600060208201905081810360008301526130dd816130a1565b9050919050565b7f4552433732313a207472616e7366657220746f20746865207a65726f2061646460008201527f7265737300000000000000000000000000000000000000000000000000000000602082015250565b600061314060248361224e565b915061314b826130e4565b604082019050919050565b6000602082019050818103600083015261316f81613133565b9050919050565b7f4f776e61626c653a2063616c6c6572206973206e6f7420746865206f776e6572600082015250565b60006131ac60208361224e565b91506131b782613176565b602082019050919050565b600060208201905081810360008301526131db8161319f565b9050919050565b7f4552433732313a20617070726f766520746f2063616c6c657200000000000000600082015250565b600061321860198361224e565b9150613223826131e2565b602082019050919050565b600060208201905081810360008301526132478161320b565b9050919050565b7f4552433732313a207472616e7366657220746f206e6f6e20455243373231526560008201527f63656976657220696d706c656d656e7465720000000000000000000000000000602082015250565b60006132aa60328361224e565b91506132b58261324e565b604082019050919050565b600060208201905081810360008301526132d98161329d565b9050919050565b7f4e487b7100000000000000000000000000000000000000000000000000000000600052601260045260246000fd5b600081519050919050565b600082825260208201905092915050565b60006133368261330f565b613340818561331a565b935061335081856020860161225f565b61335981612289565b840191505092915050565b6000608082019050613379600083018761238a565b613386602083018661238a565b6133936040830185612420565b81810360608301526133a5818461332b565b905095945050505050565b6000815190506133bf816121b4565b92915050565b6000602082840312156133db576133da61217e565b5b60006133e9848285016133b0565b91505092915050565b7f455243373231456e756d657261626c653a20636f6e736563757469766520747260008201527f616e7366657273206e6f7420737570706f727465640000000000000000000000602082015250565b600061344e60358361224e565b9150613459826133f2565b604082019050919050565b6000602082019050818103600083015261347d81613441565b9050919050565b7f4552433732313a206d696e7420746f20746865207a65726f2061646472657373600082015250565b60006134ba60208361224e565b91506134c582613484565b602082019050919050565b600060208201905081810360008301526134e9816134ad565b9050919050565b7f4552433732313a20746f6b656e20616c7265616479206d696e74656400000000600082015250565b6000613526601c8361224e565b9150613531826134f0565b602082019050919050565b6000602082019050818103600083015261355581613519565b9050919050565b6000613567826122f5565b9150613572836122f5565b925082820390508181111561358a57613589612ac0565b5b92915050565b7f4e487b7100000000000000000000000000000000000000000000000000000000600052603160045260246000fdfea264697066735822122076aef4646378ed709ebf69f0781d36fc463f6183e9ca7048062d22a0706402e064736f6c63430008130033687474703a2f2f6c6f63616c686f73743a333333332f4e46544d657461646174612f",
  "immutableReferences": {},
  "source": "// SPDX-License-Identifier: MIT\r\n// Tells the Solidity compiler to compile only from v0.8.20 to v0.9.0\r\npragma solidity >=0.8.19;\r\n\r\nimport \"@openzeppelin/contracts/access/Ownable.sol\";\r\nimport \"@openzeppelin/contracts/token/ERC721/ERC721.sol\";\r\nimport \"@openzeppelin/contracts/token/ERC721/extensions/ERC721Enumerable.sol\";\r\n\r\ncontract TheWineGame is Ownable, ERC721, ERC721Enumerable {\r\n\r\n    string private _currentBaseURI;\r\n\r\n    uint256 private tokenIDCounter = 0;\r\n\r\n    constructor() \r\n        ERC721(\"The Wine Game\", \"TWG\")\r\n    {\r\n        setBaseURI('http://localhost:3333/NFTMetadata/');\r\n    }\r\n    \r\n    function _beforeTokenTransfer(address from, address to, uint256 tokenId, uint256 batchSize)\r\n        internal\r\n        override(ERC721, ERC721Enumerable)\r\n    {\r\n        super._beforeTokenTransfer(from, to, tokenId, batchSize);\r\n    }\r\n\r\n    function supportsInterface(bytes4 interfaceId)\r\n        public\r\n        view\r\n        override(ERC721, ERC721Enumerable)\r\n        returns (bool)\r\n    {\r\n        return super.supportsInterface(interfaceId);\r\n    }\r\n\r\n    function safeMint(address to)\r\n        public\r\n        onlyOwner\r\n    {\r\n        uint256 newTokenID = tokenIDCounter;\r\n        tokenIDCounter += 1;\r\n        _safeMint(to, newTokenID);\r\n    }\r\n\r\n    function setBaseURI(string memory baseURI) \r\n        public \r\n        onlyOwner \r\n    {\r\n        _currentBaseURI = baseURI;\r\n    }\r\n\r\n    function _baseURI() \r\n        internal \r\n        view \r\n        virtual \r\n        override \r\n        returns (string memory) \r\n    {\r\n        return _currentBaseURI;\r\n    }\r\n\r\n}",
  "sourcePath": "D:\\Dudu\\CCO\\Mestrado\\Disciplinas\\INE410138 - Design de Interface de Usurio com Design Thinking\\Backend\\contract\\contracts\\TheWineGame.sol",
  "compiler": {
    "name": "solc",
    "version": "0.8.19+commit.7dd6d404.Emscripten.clang"
  },
  "schemaVersion": "3.4.16",
  "updatedAt": "2023-11-08T12:05:15.419Z",
  "networkType": "ethereum",
  "devdoc": {
    "events": {
      "Approval(address,address,uint256)": {
        "details": "Emitted when `owner` enables `approved` to manage the `tokenId` token."
      },
      "ApprovalForAll(address,address,bool)": {
        "details": "Emitted when `owner` enables or disables (`approved`) `operator` to manage all of its assets."
      },
      "Transfer(address,address,uint256)": {
        "details": "Emitted when `tokenId` token is transferred from `from` to `to`."
      }
    },
    "kind": "dev",
    "methods": {
      "approve(address,uint256)": {
        "details": "See {IERC721-approve}."
      },
      "balanceOf(address)": {
        "details": "See {IERC721-balanceOf}."
      },
      "getApproved(uint256)": {
        "details": "See {IERC721-getApproved}."
      },
      "isApprovedForAll(address,address)": {
        "details": "See {IERC721-isApprovedForAll}."
      },
      "name()": {
        "details": "See {IERC721Metadata-name}."
      },
      "owner()": {
        "details": "Returns the address of the current owner."
      },
      "ownerOf(uint256)": {
        "details": "See {IERC721-ownerOf}."
      },
      "renounceOwnership()": {
        "details": "Leaves the contract without owner. It will not be possible to call `onlyOwner` functions. Can only be called by the current owner. NOTE: Renouncing ownership will leave the contract without an owner, thereby disabling any functionality that is only available to the owner."
      },
      "safeTransferFrom(address,address,uint256)": {
        "details": "See {IERC721-safeTransferFrom}."
      },
      "safeTransferFrom(address,address,uint256,bytes)": {
        "details": "See {IERC721-safeTransferFrom}."
      },
      "setApprovalForAll(address,bool)": {
        "details": "See {IERC721-setApprovalForAll}."
      },
      "symbol()": {
        "details": "See {IERC721Metadata-symbol}."
      },
      "tokenByIndex(uint256)": {
        "details": "See {IERC721Enumerable-tokenByIndex}."
      },
      "tokenOfOwnerByIndex(address,uint256)": {
        "details": "See {IERC721Enumerable-tokenOfOwnerByIndex}."
      },
      "tokenURI(uint256)": {
        "details": "See {IERC721Metadata-tokenURI}."
      },
      "totalSupply()": {
        "details": "See {IERC721Enumerable-totalSupply}."
      },
      "transferFrom(address,address,uint256)": {
        "details": "See {IERC721-transferFrom}."
      },
      "transferOwnership(address)": {
        "details": "Transfers ownership of the contract to a new account (`newOwner`). Can only be called by the current owner."
      }
    },
    "version": 1
  },
  "userdoc": {
    "kind": "user",
    "methods": {},
    "version": 1
  }
}